:020000040800F2
:100000000090002041470008791800088318000874
:1000100000000000000000000000000000000000E0
:100020000000000000000000000000008918000827
:100030000000000000000000931800089D18000850
:100040009147000800000000914700089147000810
:1000500091470008AF180008914700089147000831
:1000600000000000C11800089147000891470008EF
:1000700091470008914700089147000800000000E0
:1000800091470008914700089147000891470008F0
:1000900091470008914700089147000891470008E0
:1000A00091470008914700089147000891470008D0
:0800B000914700089147000888
:1000B80010B5064C2378002B07D1054B002B02D036
:1000C800044800E000BF0123237010BD1000002089
:1000D80000000000EC470008044B10B5002B03D0CB
:1000E8000349044800E000BF10BDC04600000000FE
:1000F80014000020EC470008002243088B4274D308
:1001080003098B425FD3030A8B4244D3030B8B4210
:1001180028D3030C8B420DD3FF22090212BA030C19
:100128008B4202D31212090265D0030B8B4219D3FA
:1001380000E0090AC30B8B4201D3CB03C01A52411A
:10014800830B8B4201D38B03C01A5241430B8B4262
:1001580001D34B03C01A5241030B8B4201D30B034B
:10016800C01A5241C30A8B4201D3CB02C01A524172
:10017800830A8B4201D38B02C01A5241430A8B4235
:1001880001D34B02C01A5241030A8B4201D30B021E
:10019800C01A5241CDD2C3098B4201D3CB01C01A38
:1001A800524183098B4201D38B01C01A5241430942
:1001B8008B4201D34B01C01A524103098B4201D330
:1001C8000B01C01A5241C3088B4201D3CB00C01A9D
:1001D800524183088B4201D38B00C01A5241430815
:1001E8008B4201D34B00C01A5241411A00D201463A
:1001F800524110467047FFE701B5002000F006F8AD
:1002080002BDC0460029F7D076E770477047C04660
:1002180080B500AF104B180002F012FB642001F00B
:10022800E7FB0E490C4B0222180001F029FF0C4B8A
:10023800180003F0BBFE0B4B04221A700A4B322243
:100248001A6080239B0009480122190003F033F843
:10025800C046BD4680BDC04620030020980000204F
:10026800E00300202C000020400000200004005083
:1002780080B500AF00F07CF800F00CFA00F0D2FA7C
:1002880000F018FBC046BD4680BD000080B500AF39
:100298002C4B1B882C4A934205D82A4B1B880133C8
:1002A8009AB2284B1A80294B1B88772B05D8274BE5
:1002B8001B8801339AB2254B1A80254B1B88772B54
:1002C80005D8234B1B8801339AB2214B1A80214B46
:1002D8001B88214A934205D81E4B1B8801339AB2CA
:1002E8001C4B1A801D4B1B881B4A934205D81B4B7D
:1002F8001B8801339AB2194B1A80194B1B88124A72
:10030800934205D8164B1B8801339AB2144B1A80B6
:10031800144B1B88144A934205D8124B1B8801338F
:100328009AB2104B1A80114B1B880F4A934205D87A
:100338000E4B1B8801339AB20C4B1A80C046BD463F
:1003480080BDC0462E000020E703000050000020BA
:1003580052000020540000204B04000056000020EA
:10036800760000205A000020871300005C0000205F
:1003780080B582B000AF00237B60114B1B88642BD3
:1003880019D90F4B00221A800E4B1B681B041B0C3B
:100398007B607B689BB20C4AD31A9AB20B4B1A80CB
:1003A800084B1B681B0C7B607B689BB2064AD31A00
:1003B8009AB2074B1A80C046BD4602B080BDC046FF
:1003C8005000002098000020FF0F0000320000209D
:1003D8003000002080B582B000AF0200BB1D1A803B
:1003E800074B1B78DBB2012B05D1064B00225A6262
:1003F800034B02221A70C046BD4602B080BDC046FB
:1004080078000020002C014080B584B000AF0200C5
:10041800BB1D1A800023FB608E4B1B78DBB2022BBE
:1004280005D18C4B01221A708B4B00225A62894BE2
:100438001B78DBB2032B00D008E1874B5B6AFB60BB
:10044800FA68C8231B029A420FD9844B1B78013BD8
:10045800834AD25C0132D1B2814AD1547F4B1B7896
:10046800013B804A0021D154DDE0FA68FA23DB0120
:100478009A4200D9D7E0794B1B78022B3AD002DC9C
:10048800012B06D0C9E0032B65D0042B00D193E0E3
:10049800C3E0754B1B8801339AB2734B1A80724BB9
:1004A8001B88272B02D9704B00221A806F4B1A68C1
:1004B8006D4B1B8819006E4B8900CB58D21A6B4BB9
:1004C8001A606A4B1A68FB68D218684B1A60664B48
:1004D8001B881A00664B9200F968D150634B1A6862
:1004E8008C2359001000FFF707FE03001A00614B28
:1004F8001A6092E05C4B5B8801339AB25A4B5A807F
:10050800594B5B88272B02D9574B00225A805A4BEC
:100518001A68554B5B881900584B8900CB58D21A7A
:10052800554B1A60544B1A68FB68D218524B1A6024
:100538004D4B5B881A00514B9200F968D1504E4BD5
:100548001A688C2359001000FFF7D6FD03001A0023
:10055800484B5A6061E0444B9B8801339AB2424B46
:100568009A80414B9B88272B02D93F4B00229A80C7
:10057800434B1A683C4B9B881900424B8900CB5867
:10058800D21A3F4B1A603E4B1A68FB68D2183C4B94
:100598001A60354B9B881A003A4B9200F968D15083
:1005A800374B1A688C2359001000FFF7A5FD03008C
:1005B8001A00304B9A6030E02B4BDB8801339AB23B
:1005C800294BDA80284BDB88272B02D9264B0022BF
:1005D800DA802D4B1A68244BDB8819002B4B8900D5
:1005E800CB58D21A284B1A60274B1A68FB68D218C6
:1005F800254B1A601C4BDB881A00244B9200F968C3
:10060800D150214B1A688C2359001000FFF774FD54
:1006180003001A00174BDA60C046104B1B78013BE9
:10062800104A0121D1540B4B00221A700B4B1A7837
:10063800174B1B789A4203D3084B01221A7005E026
:10064800064B1B780133DAB2044B1A70C046BD461C
:1006580004B080BD78000020002C0140000000207C
:100668007C0000201C030020800000206400002083
:100678009C00002088000020680000207C020020E8
:100688006C000020DC010020700000203C010020EC
:100698002C00002080B500AF5A4B1B78DBB2002B32
:1006A80000D074E0584B1B78002B32D1574B0022F6
:1006B8005A62554B01221A70554B1B78022B10D0E9
:1006C80002DC012B05D024E0032B12D0042B18D018
:1006D8001FE0A023DB0501220421180002F0EBFD36
:1006E80017E0A023DB0501220821180002F0E3FD32
:1006F8000FE0A023DB0501221021180002F0DBFD2A
:1007080007E0A023DB0501222021180002F0D3FD19
:10071800C0463D4B1B78012B39D13C4B5B6A192BEA
:1007280035D93B4B1B78022B10D002DC012B05D0AE
:1007380024E0032B12D0042B18D01FE0A023DB05E4
:1007480000220421180002F0B6FD17E0A023DB0503
:1007580000220821180002F0AEFD0FE0A023DB05FF
:1007680000221021180002F0A6FD07E0A023DB05F7
:1007780000222021180002F09EFDC046214B0122D4
:100788001A70214B00221A70224B00221A801D4B2E
:100798001B78DBB2012B25D11E4B1B88C82B21D916
:1007A8001B4B1B78013B1C4AD25C0132D1B21A4A5E
:1007B800D154174B1B78013B184A0021D154144BD4
:1007C8001A78174B1B789A4203D3114B01221A70DF
:1007D80005E00F4B1B780133DAB20D4B1A70094B49
:1007E80000221A70074B1B78DBB2022B06D1074B8D
:1007F8005B6A802B02D9034B03221A70C046BD46A0
:1008080080BDC046780000207B000020002C0140FD
:1008180000000020760000207C0000201C0300203F
:100828002C00002080B582B000AF1D4B1B880A2B1E
:1008380031D91B4B00221A80FB1D00221A7024E0BC
:10084800FB1D1B78174AD35C002B14D1FB1D1B78AA
:10085800154AD35C0A2B13D9FB1D1B7801229A4039
:1008680013005AB2114B1B785BB213435BB2DAB276
:100878000E4B1A7004E0FB1D1B780B4A0021D15463
:10088800FB1D1A78FB1D01321A70094B1B78FA1DE3
:1008980012789A42D4D3C046BD4602B080BDC04645
:1008A800520000201C0300207C000020740000205F
:1008B8002C00002080B582B000AFD74B1B88052BD9
:1008C80001D800F0A4FCD44B00221A80D34B1B782B
:1008D800032B50D9D24B1A68D14B5B68D3187B6075
:1008E8007B685B087B60CF4B7A681A60CC4B9A6850
:1008F800CB4BDB68D3187B607B685B087B60CA4B9B
:100908007A681A60C94B1B88DB089BB264331A00EB
:10091800C74B1A6000237B60FB1C00221A700CE096
:10092800FB1C1A78BE4B9200D3587A68D3187B60A8
:10093800FB1C1A78FB1C01321A70FB1C1B78032B5A
:10094800EED97B689A08BB4B1A60B84B1B88DB084A
:100958009BB23233002B00DA01335B101A00B64B1E
:100968001A60B64B1B885B089BB22D33FF331A0005
:10097800B34B1A6000E0C046B24B1B78002B00D086
:1009880062E2B14B2021180002F078FC0300012B31
:1009980016D0AE4B00221A7080239B00AA48012271
:1009A800190002F088FC80235B00A7480022190088
:1009B80002F081FCA44B00228021180002F07BFC8D
:1009C800A14B1021180002F059FC0300012B16D08E
:1009D8009E4B01221A7080239B009B48002219001D
:1009E80002F069FC80235B0097480122190002F09D
:1009F80062FC954B00228021180002F05CFC924BAF
:100A08000821180002F03AFC0300012B16D08F4B86
:100A180002221A7080239B008B480022190002F0E2
:100A28004AFC80235B0088480022190002F043FC3E
:100A3800854B01228021180002F03DFC834B1B7876
:100A4800DBB2002B21D180235901A023DB05002232
:100A5800180002F030FC80231901A023DB050022D6
:100A6800180002F028FC8023D900A023DB0500220F
:100A7800180002F020FC80239900A023DB05002247
:100A8800180002F018FC00F0C2FB704B1B78DBB2B8
:100A9800022B00D9BAE1634B1A68634B1B689A4270
:100AA8006AD98023D900A023DB050022180002F0B0
:100AB80002FC5C4B1A685C4B1B68D31A7B60644B66
:100AC80000221A70634B1B687A689A420AD2802304
:100AD8009900A023DB050022180002F0ECFB5E4B16
:100AE80000221A70524B1B687A689A4211D95A4BE5
:100AF8001B78002B0DD180239900A023DB05012250
:100B0800180002F0D8FB554B00221A80524B0122E4
:100B18001A70514B1B78012B13D1504B1B88642B37
:100B280000D8B5E080239900A023DB050022180037
:100B380002F0C1FB494B00221A80474B02221A706F
:100B4800A6E0454B1B78022B00D0A1E0434B1A8846
:100B5800FA231B019A4200D89AE080239900A02327
:100B6800DB050122180002F0A6FB3C4B00221A808C
:100B7800394B01221A708BE080239900A023DB05F2
:100B88000022180002F097FB274B1A68254B1B68B8
:100B9800D31A7B60304B00221A702E4B1B687A6880
:100BA8009A420AD28023D900A023DB05002218002C
:100BB80002F081FB264B00221A701D4B1B687A68D5
:100BC8009A4211D9224B1B78002B0DD18023D900D2
:100BD800A023DB050122180002F06DFB1F4B002249
:100BE8001A801B4B01221A70194B1B78012B37D125
:100BF8001A4B1B88642B4BD98023D900A023DB0513
:100C08000022180002F057FB144B00221A80104BE8
:100C180002221A703CE0C046540000202C0000203C
:100C28008800002038000020340000203000002018
:100C38003C000020440000204C000020320000202E
:100C480048000020740000200004005079000020B3
:100C58005F000020400000205E0000205A000020B5
:100C6800D94B1B78022B13D1D84B1A88FA231B01B6
:100C78009A420DD98023D900A023DB050122180050
:100C880002F019FBD14B00221A80CF4B01221A70B7
:100C9800CF4B1B78DBB2022B00D0B8E2CD4B1A68E1
:100CA800CD4B1B689A4258D9CC4B00221A7080232E
:100CB8001901A023DB050022180002F0FCFAC54B3D
:100CC8001A68C54B1B68D21AC54B1B689A4211D9C2
:100CD800C44B1B78002B0DD180235901A023DB05C1
:100CE8000122180002F0E7FABF4B00221A80BD4B20
:100CF80001221A70BB4B1B78012B13D1BA4B1B88EE
:100D0800642B00D883E280235901A023DB0500224D
:100D1800180002F0D0FAB44B00221A80B14B02221C
:100D28001A7074E2AF4B1B78022B00D06FE2AE4B07
:100D38001A88FA239B009A4200D868E28023590156
:100D4800A023DB050122180002F0B5FAA64B002209
:100D58001A80A44B01221A7059E2A24B00221A7081
:100D680080235901A023DB050022180002F0A3FA12
:100D7800994B1A68974B1B68D21A994B1B689A4271
:100D880011D9964B1B78002B0DD180231901A02374
:100D9800DB050122180002F08EFA934B00221A801C
:100DA8008E4B01221A708D4B1B78012B13D18E4B61
:100DB8001B88642B00D82AE280231901A023DB05B5
:100DC8000022180002F077FA874B00221A80834B22
:100DD80002221A701BE2814B1B78022B00D016E20C
:100DE800814B1A88FA239B009A4200D80FE280238D
:100DF8001901A023DB050122180002F05CFA7A4BE6
:100E080000221A80754B01221A7000E2704B0022F2
:100E18001A7080239B0075480122190002F04BFAD2
:100E280080235B0071480022190002F044FA6F4BDE
:100E380000228021180002F03EFA6C4B002240216B
:100E4800180002F038FAE2E180235901A023DB05FB
:100E58000022180002F02FFA80231901A023DB05D5
:100E68000022180002F027FA8023D900A023DB050E
:100E78000022180002F01FFA80239900A023DB0546
:100E88000022180002F017FA80239B00574800221E
:100E9800190002F010FA80235B0054480022190060
:100EA80002F009FA514B00228021180002F003FADF
:100EB8004E4B2021180002F0E1F90300012B1CD051
:100EC8004B4B1B78002B05D1494B01221A70494B1B
:100ED80000221A80474B1A88FA235B009A420FD9DE
:100EE800424B00224021180002F0E5F9424B002253
:100EF8001A70374B00221A7002E03D4B00221A701C
:100F08003D4B1B781A000123134002D001237B605C
:100F180019E0394B1B781A000223134002D0022330
:100F28007B6010E0344B1B781A000423134002D076
:100F380003237B6007E0304B1B781A00082313401B
:100F480001D004237B602D4B1B780D2B00D95EE16B
:100F58009A002B4BD3181B689F462A4B1B882A4A9A
:100F6800934200D838E1274B00221A80234B0122F4
:100F78001A701E4B01224021180002F09CF92BE147
:100F8800204B1B88962B00D828E11E4B00221A8084
:100F98001A4B02221A70154B00224021180002F049
:100FA8008AF91BE1174B1B88962B00D818E1154BC3
:100FB80000221A80114B03221A700C4B0122402187
:100FC800180002F078F90BE15F0000205A000020B9
:100FD8007900002044000020480000206000002024
:100FE8004C000020610000205C000020000400503C
:100FF8005800002056000020740000207A000020CD
:10100800044800082E000020DE030000824B1B88E5
:10101800962B00D8E6E0804B00221A807F4B0422F2
:101028001A707F4B00224021180002F044F9D9E0E1
:10103800794B1B88962B00D8D6E0774B00221A8074
:10104800764B05221A70764B01224021180002F0D7
:1010580032F9C9E0704B1B88962B00D8C6E06E4B5E
:1010680000221A806D4B06221A706D4B0022402117
:10107800180002F020F9B9E0674B1B88694A9342CF
:1010880000D8B5E0644B00221A80644B07221A701E
:10109800634B01224021180002F00DF9A8E05E4BD5
:1010A8001A88FA235B009A4200D8A3E05A4B002220
:1010B8001A807B68012B03D1584B00221A7002E07A
:1010C800564B08221A70564B00224021180002F095
:1010D800F2F88FE0504B1A88FA235B009A4200D846
:1010E8008AE04D4B00221A804C4B09221A704C4B57
:1010F80001224021180002F0DEF87DE0464B1A88F4
:10110800FA235B009A4200D878E0434B00221A8009
:101118007B68022B03D1414B00221A7002E03F4B3F
:101128000A221A703E4B00224021180002F0C3F830
:1011380064E0394B1A88FA235B009A4260D9364B2F
:1011480000221A80354B0B221A70354B01224021A0
:10115800180002F0B0F853E02F4B1A88FA235B000E
:101168009A424FD92C4B00221A807B68032B03D15B
:101178002A4B00221A7002E0284B0C221A70284BC6
:1011880000224021180002F096F83BE0224B1A8812
:10119800FA235B009A4237D91F4B00221A801F4B53
:1011A8000D221A701E4B01224021180002F083F80C
:1011B8002AE0194B1A88FA235B009A4226D9164B63
:1011C80000221A80154B00221A70154B002240216C
:1011D800180002F070F819E0C04618E0C04616E0A2
:1011E800C04614E0C04612E0C04610E0C0460EE01B
:1011F800C0460CE0C0460AE0C04608E0C04606E02B
:10120800C04604E0C04602E0C04600E0C046C04612
:10121800BD4602B080BDC0462E0000207A000020E6
:1012280000040050EE02000080B500AF00F05CFB47
:1012380000F00DF800F0BCF900F09CF900F088F817
:1012480000F004F9FEF7E4FFFFF712F8FCE780B5B9
:1012580098B000AF2C23FB18180034231A00002183
:1012680003F0B8FA1C23FB18180010231A000021F9
:1012780003F0B0FA3B0018001C231A00002103F009
:10128800A9FA80239B00180002F05CF82C23FB18B5
:1012980002221A602C23FB1880225200DA602C23C9
:1012A800FB1800221A612C23FB1840225A612C23B8
:1012B800FB180222DA612C23FB1802221A622C2363
:1012C800FB1800225A622C23FB1808229A622C234E
:1012D800FB1880229202DA622C23FB1880229205E6
:1012E8001A632C23FB18180002F06AF8031E01D0B9
:1012F80000F0FAF91C23FB1807221A601C23FB18BC
:1013080002225A601C23FB1800229A601C23FB1837
:101318000022DA601C23FB180221180002F060FB8F
:10132800031E01D000F0E0F93B008022D2011A60D0
:101338003B0000225A613B00180002F0D9FC031E52
:1013480001D000F0D1F9C046BD4618B080BD0000FC
:1013580080B584B000AF3B1D18000C231A00002193
:1013680003F038FA364B374A1A60354B8022D205DB
:101378005A60334B00229A60314B0022DA60304BBE
:10138800802292031A612E4B08225A612C4B0022AC
:101398001A762B4B00225A76294B01229A76284B33
:1013A8000222DA61264B202200219954244B002284
:1013B8005A62234B00229A62214B2C220121995414
:1013C8001F4B00221A631E4B07225A631C4B07222D
:1013D8009A631B4B3C2200219954194B0022DA6472
:1013E800174B180000F07AFC031E01D000F07CF9BE
:1013F8003B1D01221A603B1D00225A603B1D002242
:101408009A603A1D0E4B1100180000F0DFFE031E13
:1014180001D000F069F93B1D0B4A1A603B1D0422FC
:101428005A603A1D064B1100180000F0CFFE031E4B
:1014380001D000F059F9C046BD4604B080BDC04691
:1014480020030020002401400200000480B59AB067
:1014580000AF5823FB18180010231A00002103F0CE
:10146800B9F94423FB18180014231A00002103F0CB
:10147800B1F93823FB1818000C231A00002103F0D7
:10148800A9F93B1D180034231A00002103F0A2F922
:10149800354B364A1A60344B32225A60324B00229E
:1014A8009A60314B324ADA602F4B00221A612E4B78
:1014B80000225A612C4B00229A612B4B180002F033
:1014C80049FD031E01D000F00FF95823FB188022B4
:1014D80052011A605823FA18234B1100180002F021
:1014E8008FFD031E01D000F0FFF84423FB180022F3
:1014F8001A604423FB1800225A604423FA181A4B36
:101508001100180002F03CFE031E01D000F0ECF8B8
:101518003823FB1800221A603823FB1800225A606F
:101528003823FB1800229A603823FA180E4B110052
:10153800180003F005F8031E01D000F0D5F83B1D94
:101548000022DA613B1D0022DA623A1D064B1100C7
:10155800180003F04BF8031E01D000F0C5F8C04690
:10156800BD461AB080BDC046E0030020002C0140F3
:10157800FFFF000080B582B000AF0C4B0B4A926BA6
:1015880001210A439A63094B9B6B012213407B603C
:101598007B6800220021092001F080FA092001F06F
:1015A80093FAC046BD4602B080BDC0460010024056
:1015B80080B588B000AF0C23FB18180014231A005C
:1015C800002103F007F9444B434A526B02210A43B6
:1015D8005A63414B5B6B02221340BB60BB683E4BB6
:1015E8003D4A526B01210A435A633B4B5B6B012214
:1015F80013407B607B68F0239B0038480022190069
:1016080001F059FE3649A023DB050022180001F03D
:1016180052FE0C23FB18F02292001A600C23FB18D0
:1016280001225A600C23FB1800229A600C23FB1835
:101638000022DA600C23FB18284A1900100001F078
:10164800B9FC0C23FB18264A1A600C23FB1801224C
:101658005A600C23FB1800229A600C23FB18002206
:10166800DA600C23FA18A023DB051100180001F03A
:10167800A1FC0C23FB1801221A600C23FB18194A41
:101688005A600C23FB1800229A600C23FB18134A9B
:101698001900100001F08EFC0C23FB1838221A6088
:1016A8000C23FB1800225A600C23FB1800229A60B6
:1016B8000C23FB18094A1900100001F07BFC0022DA
:1016C8000021052001F0EAF9052001F0FDF9C046E6
:1016D800BD4608B080BDC04600100240000400505E
:1016E8003C1E00000000311080B500AFC046BD466A
:1016F80080BD000080B582B000AF114B104A126C5B
:1017080001210A431A640E4B1B6C012213407B60B3
:101718007B680B4B0A4AD26B802149050A43DA637E
:10172800074BDA6B80235B0513403B603B68C023A3
:10173800DB00180000F07EF9C046BD4602B080BD4F
:101748000010024080B58AB000AF78601423FB18FF
:10175800180014231A00002103F03CF87B681B686A
:101768002F4A934258D12F4B2E4A126C802149039D
:101778000A431A642B4B1A6C80235B0313403B61AA
:101788003B69284B274A526B01210A435A63254B70
:101798005B6B01221340FB60FB681423FB180322D8
:1017A8001A601423FB1803225A601423FB18002222
:1017B8009A601423FA18A023DB051100180001F021
:1017C800F9FB194B194A1A60174B05225A60164B38
:1017D80000229A60144B0022DA60134B80221A61AF
:1017E800114B802252005A610F4B8022D2009A611D
:1017F8000D4B2022DA610C4B00221A620A4B1800AA
:1018080001F080F9031E01D0FFF76EFF7B68064ADE
:101818001A65054B7A689A62C046BD460AB080BD13
:101828000024014000100240840300200800024008
:1018380080B584B000AF78607B681B680A4A934221
:101848000DD10A4B094A126C802109010A431A6416
:10185800064B1A6C80231B011340FB60FB68C046D3
:10186800BD4604B080BDC046002C014000100240B7
:1018780080B500AFC046BD4680BD80B500AFFEE76D
:1018880080B500AFC046BD4680BD80B500AFC0463C
:10189800BD4680BD80B500AF00F090F8FEF7F6FCBD
:1018A800C046BD4680BD80B500AF012001F020FDD7
:1018B800C046BD4680BD000080B500AF034B180090
:1018C80001F032FAC046BD4680BDC0468403002000
:1018D80080B500AF034B802212059A60C046BD4612
:1018E80080BDC04600ED00E080B582B000AFFB1DB2
:1018F80000221A700B4B0B4A1268802149000A43D8
:101908001A60002000F010F8031E03D0FB1D01220E
:101918001A7001E0FFF7EEFEFB1D1B781800BD46AC
:1019280002B080BD0020024090B585B000AF78605D
:101938000F23FB1800221A701D4B1B68002B2BD09D
:101948001C4B1C681A4B1B681900FA239800FEF7F9
:10195800D3FB030019002000FEF7CEFB030018009C
:1019680001F0C2F8031E12D17B68032B0AD87968EC
:1019780001235B420022180001F090F80E4B7A68B0
:101988001A600DE00F23FB1801221A7008E00F23DC
:10199800FB1801221A7003E00F23FB1801221A70AA
:1019A8000F23FB181B781800BD4605B090BDC04634
:1019B8000C000020040000200800002080B500AFC3
:1019C800044B1A68044B1B68D218024B1A60C046B5
:1019D800BD4680BD200400200C00002080B500AF6B
:1019E800024B1B681800BD4680BDC046200400207D
:1019F80080B584B000AF7860FFF7F0FF0300BB60EC
:101A08007B68FB60FB68013304D0094B1B68FA68EC
:101A1800D318FB60C046FFF7E1FF0200BB68D21A8B
:101A2800FB689A42F7D3C046BD4604B080BDC046A5
:101A38000C00002080B582B000AF7860054B054AE5
:101A48001268054911407A680A431A60C046BD46C3
:101A580002B080BD00000140FFF9FFFF80B582B0F1
:101A680000AF786039607B681B68054A1A403B689C
:101A78001A437B681A60C046BD4602B080BDC046A6
:101A8800FFFF3FFE80B582B000AF78607B681A68C0
:101A9800E0235B0413401800BD4602B080BD80B54A
:101AA80084B000AFF860B9607A60FB685B69BA68B7
:101AB80004210A40072191400A00D2431A40BB681A
:101AC80004210B40796899400B001A43FB685A615E
:101AD800C046BD4604B080BD80B582B000AF786016
:101AE8007B68DA68C0231B01134001D1012300E0A1
:101AF80000231800BD4602B080BD80B584B000AF99
:101B0800F860B9607A60FB689B6ABA681F210A406E
:101B18000F2191400A00D2431A407B689B0E0F2187
:101B28001940BB681F20034099400B001A43FB680B
:101B38009A62C046BD4604B080BD80B582B000AF91
:101B4800786039607B689A6A3B685B035B0B1A4371
:101B58007B689A62C046BD4602B080BD80B582B03F
:101B680000AF786039607B689B6A3A685203520B11
:101B7800D2431A407B689A62C046BD4602B080BD17
:101B880080B584B000AFF860B9607A60FB685B69C3
:101B9800BA681202D2431A40BB681B0279680B402C
:101BA80004490B401A43FB685A61C046BD4604B05D
:101BB80080BDC04600FFFF0780B582B000AF7860E7
:101BC8007B689B68054A1340802252051A437B684C
:101BD8009A60C046BD4602B080BDC046E8FFFF6FB0
:101BE80080B582B000AF78607B689A6880235B0517
:101BF8001A4080235B059A4201D1012300E00023AB
:101C08001800BD4602B080BD80B582B000AF7860D4
:101C18007B689B68044A134001221A437B689A60D8
:101C2800C046BD4602B080BDE8FFFF7F80B582B0E8
:101C380000AF78607B689B68044A134002221A430D
:101C48007B689A60C046BD4602B080BDE8FFFF7F52
:101C580080B582B000AF78607B689B680122134032
:101C6800012B01D1012300E000231800BD4602B07A
:101C780080BD80B582B000AF78607B689B68022227
:101C88001340022B01D1012300E000231800BD46B8
:101C980002B080BD80B582B000AF78607B689B6879
:101CA800044A134004221A437B689A60C046BD4622
:101CB80002B080BDE8FFFF7F80B582B000AF7860DA
:101CC8007B689B6804221340042B01D1012300E0A8
:101CD80000231800BD4602B080BD000080B588B062
:101CE80000AF78601F23FB1800221A700023BB6125
:101CF80000237B610023BB607B68002B01D101239B
:101D0800A6E17B689B6D002B0AD17B681800FFF762
:101D180019FD7B680022DA657B68542200219954FA
:101D28007B681B681800FFF75BFF031E14D17B68F4
:101D38001B681800FFF740FFC74B1B68C74918000E
:101D4800FEF7DAF903005B00BB6002E0BB68013B09
:101D5800BB60BB68002BF9D17B681B681800FFF7D4
:101D68003FFF031E0FD17B689B6D10221A437B68CF
:101D78009A657B68DB6D01221A437B68DA651F234D
:101D8800FB1801221A707B681B681800FFF794FF84
:101D98000300FB607B689B6D1022134000D04AE172
:101DA800FB68002B00D046E17B689B6DAC4A134072
:101DB80002221A437B689A657B681B681800FFF744
:101DC80047FF031E36D17B681B687A681268D268A1
:101DD80018218A4311007A6892680A43DA607B689E
:101DE8001B687A6812681269920091087A685268CA
:101DF800920F92070A431A617B685A68C0231B0630
:101E08009A4217D07B685A688023DB059A4211D022
:101E18007B685A6880231B069A420BD0914A914BE3
:101E28001B68914919407B685868F0239B0303405D
:101E38000B4313607B681B7E9A037B685B7EDB0326
:101E48001A437B689B7E5B031A437B681B6B002BE2
:101E580002D080235B0100E000231A437B68DB6823
:101E68001A437B681B69002B04DA7B681B695B00DB
:101E78005B0801E080239B031A437B682C215B5C91
:101E88005B001343BA691343BB617B6820229B5CE8
:101E9800012B15D17B689B7E002B05D1BB69802265
:101EA80052021343BB610BE07B689B6D20221A43EF
:101EB8007B689A657B68DB6D01221A437B68DA656B
:101EC8007B685B6A002B0AD07B685A6AE0235B0058
:101ED8001A407B689B6A1343BA691343BB617B68EA
:101EE8001A6C7B685B6C1A437B689B6C1A437B6833
:101EF800DB6C13437A6913437B617B683C229B5CF0
:101F0800012B03D17B69012213437B617B681B682A
:101F18007A681268D26855491140BA690A43DA608A
:101F28007B681B687A6812681269514911407A699E
:101F38000A431A617B6818687B685B6B1A0000218A
:101F4800FFF7ADFD7B6818687B689B6B49491A00F1
:101F5800FFF7A5FD7B681B69002B09D17B681B680F
:101F68007A681268926A102149420A439A623BE0F1
:101F78007B681A6980239B039A4235D100233B6111
:101F88000CE07B681A6E3B699B00DA4013000F2255
:101F980013400F2B06D03B6901333B613B69072B8C
:101FA800EFD900E0C0463B69012B09D17B681B686B
:101FB8007A681268926A102149420A439A6213E0C9
:101FC8007B681B689B6A7B681B687A68D2692A49A8
:101FD8008C46624492001C210A40102149429140DB
:101FE8007A68126E0A439A627B681B68DB68234A28
:101FF8001A40BB699A420BD17B680022DA657B687C
:102008009B6D0322934301221A437B689A651CE067
:102018007B689B6D1222934310221A437B689A6552
:102028007B68DB6D01221A437B68DA651F23FB1886
:1020380001221A7009E07B689B6D10221A437B68A5
:102048009A651F23FB1801221A701F23FB181B789F
:102058001800BD4608B080BD04000020400D0300F4
:10206800FDFEFFFF08270140FFFFC3FF1902FEFF27
:1020780002FCFFDF04FFFF07FFFFFF3FE7FF3F838F
:1020880090B587B000AFF860B9607A60FB681B68EC
:102098001800FFF711FE031E6DD1FB6854229B5CEC
:1020A800012B01D102236DE0FB68542201219954D0
:1020B800FB681B68DB680122134013D1FB681B68AF
:1020C8001800FFF7C5FD031E04D0FB681B68180045
:1020D800FFF7ACFDFB681B68FA681268D26801213B
:1020E8000A43DA601723FC18FB68180000F042FA6C
:1020F800030023701723FB181B78002B3FD1FB68C4
:102108009B6D224A1340802252001A43FB689A654D
:10211800FB680022DA65FB681B6D1D4ADA62FB6802
:102128001B6D1C4A1A63FB681B6D1B4A5A63FB68CC
:102138001B681C221A60FB68542200219954FB6812
:102148001B68FA681268526810210A435A60FB68D3
:10215800186DFB681B6840331900BA681723FC1810
:102168007B6800F059FD03002370FB681B681800AA
:10217800FFF790FD03E01723FB1802221A701723BC
:10218800FB181B781800BD4607B090BDFEF0FFFF96
:10219800E5260008AD270008CB27000880B582B0E7
:1021A80000AF7860C046BD4602B080BD80B582B041
:1021B80000AF7860C046BD4602B080BD80B582B031
:1021C80000AF7860C046BD4602B080BD80B586B01D
:1021D80000AF786039601723FB1800221A700023BB
:1021E800FB607B6854229B5C012B01D10223BCE17C
:1021F8007B685422012199547B681B681800FFF7FB
:102208005BFD031E00D09FE13B685B68022B00D199
:102218003EE17B681A6980231B069A4204D07B68DA
:102228001B69BF4A934208D17B681A683B681B68E0
:1022380019001000FFF781FCC9E07B681A6E3B6843
:102248005B681F210B400F2199400B00DB431340B3
:1022580019003B681B685B035B0B05D13B681B6877
:102268009B0E1F22134098E03B681B680122134015
:1022780000D091E03B681B680222134000D089E03F
:102288003B681B680422134000D081E03B681B6850
:102298000822134000D079E03B681B6810221340E5
:1022A80000D071E03B681B682022134000D069E031
:1022B8003B681B684022134000D061E03B681B6804
:1022C8008022134000D059E03B681A6880235B00E5
:1022D800134051D13B681A6880239B00134049D1B1
:1022E8003B681A688023DB00134041D13B681A68B9
:1022F80080231B01134039D13B681A6880235B0196
:10230800134031D13B681A6880239B01134029D1BF
:102318003B681A688023DB01134021D13B681A68A7
:1023280080231B02134019D13B681A6880235B0283
:10233800134011D13B681A6880239B02134009D1CE
:102348003B681A688023DB02134001D0122324E083
:10235800002322E0112320E010231EE00F231CE0BD
:102368000E231AE00D2318E00C2316E00B2314E0CB
:102378000A2312E0092310E008230EE007230CE0EB
:1023880006230AE0052308E0042306E0032304E00B
:10239800022302E0012300E000233A6852681F206C
:1023A800024093400A001A437B681A663B685B68E0
:1023B8009B085A1C7B68DB699A4208D87B681868B6
:1023C8003B6859683B681B681A00FFF796FB7B68F7
:1023D80018683B6819683B689B681A00FFF7D0FBD0
:1023E8003B681B68002B00DBB8E04E4B1800FFF77A
:1023F80049FB03003B613B681B684B4A93421DD174
:102408003A6980231B04134018D13B6980221204C7
:102418001343444A19001000FFF720FB434B1B6885
:1024280043491800FDF768FE0300FB6002E0FB6803
:10243800013BFB60FB68002BF9D18FE03B681B6810
:102448003C4A93420ED13A6980235B04134009D178
:102458003B69802252041343324A19001000FFF7E7
:10246800FDFA7BE03B681B68334A934200D075E075
:102478003A698023DB03134000D06FE03B69802278
:10248800D2031343274A19001000FFF7E7FA65E063
:102498007B681A6980231B069A4204D07B681B69F3
:1024A8001F4A934207D17B681A683B681B6819006A
:1024B8001000FFF753FB3B681B68002B4EDA194BE3
:1024C8001800FFF7DFFA03003B613B681B68164AF8
:1024D800934208D13B69194A1340124A1900100067
:1024E800FFF7BCFA3AE03B681B68124A934208D1EE
:1024F8003B69134A13400B4A19001000FFF7AEFA64
:102508002CE03B681B680C4A934227D13B690D4A73
:102518001340044A19001000FFF7A0FA1EE0C04655
:102528000400008008270140001000B004000020CB
:10253800400D0300004000B8002000B4FFFF7FFFFB
:10254800FFFFFFFEFFFFBFFF7B689B6D20221A4342
:102558007B689A651723FB1801221A707B6854223E
:10256800002199541723FB181B781800BD4606B0A4
:1025780080BDC04680B584B000AF78607B681B68BA
:102588001800FFF765FB031E49D17B681B689B6831
:10259800254A13400DD07B689B6D10221A437B6837
:1025A8009A657B68DB6D01221A437B68DA65012333
:1025B80036E07B681B681800FFF726FB7B685B7EAC
:1025C800012B2CD0FFF70AFA0300FB6020E07B68A0
:1025D8001B681800FFF73CFB031E04D17B681B68CF
:1025E8001800FFF711FBFFF7F9F90200FB68D31A8F
:1025F800022B0DD97B689B6D10221A437B689A6564
:102608007B68DB6D01221A437B68DA65012307E0EA
:102618007B681B681B6801221340012BD7D100235C
:102628001800BD4604B080BD1700008080B584B096
:1026380000AF78607B681B681800FFF71AFB03007F
:10264800FB607B681B681800FFF702FB031E40D085
:10265800FB68002B3DD17B681B689B6805221340F3
:10266800012B0DD17B681B681800FFF7DFFA7B6828
:102678001B6803221A60FFF7B1F90300BB6022E070
:102688007B689B6D10221A437B689A657B68DB6DBB
:1026980001221A437B68DA6501231BE0FFF79EF9E4
:1026A8000200BB68D31A022B0DD97B689B6D1022E0
:1026B8001A437B689A657B68DB6D01221A437B6845
:1026C800DA65012306E07B681B689B6801221340DA
:1026D800E4D100231800BD4604B080BD80B584B0A5
:1026E80000AF78607B689B6AFB60FB689B6D50223B
:1026F800134041D1FB689B6D802292001A43FB680E
:102708009A65FB681B681800FFF7E6F9031E2ED0D0
:10271800FB689B7E002B2AD1FB681B681B6808227C
:102728001340082B23D1FB681B681800FFF7C4FA75
:10273800031E10D1FB681B68FA68126852680C21E6
:102748008A435A60FB689B6D154A134001221A435D
:10275800FB689A650BE0FB689B6D20221A43FB68B7
:102768009A65FB68DB6D01221A43FB68DA65FB6832
:102778001800FFF713FD0FE0FB689B6D1022134054
:1027880004D0FB681800FFF719FD05E0FB681B6D16
:102798005B6B7A6810009847C046BD4604B080BDA0
:1027A800FEFEFFFF80B584B000AF78607B689B6A4F
:1027B800FB60FB681800FFF7F9FCC046BD4604B093
:1027C80080BD80B584B000AF78607B689B6AFB6091
:1027D800FB689B6D40221A43FB689A65FB68DB6DBA
:1027E80004221A43FB68DA65FB681800FFF7E6FC69
:1027F800C046BD4604B080BD80B582B000AF7860E9
:102808007B689B6801221340012B01D1012300E062
:1028180000231800BD4602B080BD80B582B000AF6D
:1028280078607B689B68DB0FDA0780231B069A4277
:1028380001D1012300E000231800BD4602B080BD8D
:1028480090B587B000AF78600023FB607B685422A6
:102858009B5C012B01D102236CE07B68542201218F
:1028680099541723FC187B681800FFF7DFFE030054
:1028780023707B681B681800FFF7BEFF031E4CD14E
:102888007B689B6D2D4A134002221A437B689A6528
:102898007B681B68DB68032213403B617B681B680D
:1028A8007A681268D26803218A43DA607B681B68F9
:1028B8007A6812689268802109060A439A6014E0CF
:1028C800FB680133FB60FB681D4A93420DD97B68A6
:1028D8009B6D1222934310221A437B689A657B688A
:1028E800542200219954012324E07B681B681800B6
:1028F800FFF793FF031EE3D17B681B687A681268B1
:10290800D1683A690A43DA607B689B6D0322934376
:1029180001221A437B689A6505E07B689B6D10224B
:102928001A437B689A657B685422002199541723BF
:10293800FB181B781800BD4607B090BDFDFEFFFFD1
:10294800FFF1020080B582B000AF0200FB1D1A70D3
:10295800FB1D1B787F2B09D8064BFA1D1278110036
:102968001F220A40012191400A001A60C046BD4654
:1029780002B080BD00E100E0B0B582B000AF020057
:102988003960FB1D1A70FB1D1B787F2B28D82F4C34
:10299800FB1D1B785BB29B082C49FA1D127852B2BA
:1029A8009208C03292005258F91D09780800032194
:1029B8000140C900FF2088400100C94311403A681E
:1029C8009201FF201040FA1D1278150003222A40B8
:1029D800D200904002000A43C0339B001A5131E0F4
:1029E8001B4CFB1D1B781A000F231340083B99084A
:1029F800174AFB1D1B7818000F230340083B9B0850
:102A080006339B00D31804331B68FA1D1278100094
:102A180003220240D200FF2090400200D2431A4015
:102A28003B689B01FF201840FB1D1B781D000323FA
:102A38002B40DB00984003001A438B1D9B00E318D2
:102A480004331A60C046BD4602B0B0BD00E100E0E4
:102A580000ED00E080B582B000AF78607B68013B94
:102A68000C4A934201D9012310E00B4B7A68013AD2
:102A78005A6001235B4203211800FFF77DFF064BD4
:102A880000229A60044B07221A6000231800BD46F2
:102A980002B080BDFFFFFF0010E000E080B584B009
:102AA80000AFB9607A600F23FB18021C1A70BA686D
:102AB8000F23FB181B785BB211001800FFF75CFFAF
:102AC800C046BD4604B080BD80B582B000AF0200EC
:102AD800FB1D1A70FB1D1B785BB21800FFF732FF55
:102AE800C046BD4602B080BD80B582B000AF7860F8
:102AF8007B681800FFF7AEFF03001800BD4602B060
:102B080080BD000080B582B000AF78607B68002B84
:102B180001D1012377E07B681B683D4A94466344F2
:102B280014211800FDF7E8FA03009A007B681A647C
:102B38007B682522022199547B681B687A68126891
:102B4800126834490A401A607B681B687A68126800
:102B580011687A6890687A68D26810437A6812694E
:102B680010437A68526910437A68926910437A6808
:102B7800D26910437A68126A02430A431A607B6872
:102B8800180000F0C7F97B689A688023DB019A4235
:102B980002D17B6800225A607B685B6C7A68526855
:102BA800FF210A401A607B689B6C7A68D26C5A6075
:102BB8007B685B68002B11D07B685B68042B0DD8A1
:102BC8007B68180000F0D2F97B681B6D00221A6040
:102BD8007B685B6D7A68926D5A6008E07B680022BA
:102BE8001A657B6800225A657B6800229A657B68B3
:102BF8000022DA637B682522012199547B6824220C
:102C08000021995400231800BD4602B080BDC0467B
:102C1800F8FFFDBF0F80FFFF80B586B000AFF860FA
:102C2800B9607A603B601723FB1800221A70FB68B2
:102C380024229B5C012B01D1022370E0FB68242233
:102C480001219954FB6825229B5CDBB2012B57D1EB
:102C5800FB68252202219954FB680022DA63FB688D
:102C68001B68FA681268126801218A431A603B6877
:102C78007A68B968F86800F00DF9FB681B6B002BDF
:102C880008D0FB681B68FA68126812680E210A43AC
:102C98001A600FE0FB681B68FA6812681268042162
:102CA8008A431A60FB681B68FA68126812680A216E
:102CB8000A431A60FB685B6C1A6880235B02134046
:102CC80008D0FB685B6CFA68526C12688021490076
:102CD8000A431A60FB681B6D002B08D0FB681B6D4C
:102CE800FA68126D1268802149000A431A60FB686D
:102CF8001B68FA681268126801210A431A6007E023
:102D0800FB682422002199541723FB1802221A7009
:102D1800FB682422002199541723FB181B781800FC
:102D2800BD4606B080BD000080B584B000AF7860B5
:102D3800574B1B68FB607B681B681B68BB607B6824
:102D48001B6C1C22134004229A401300FA6813409B
:102D580028D0BB680422134024D07B681B681B68FA
:102D68002022134007D17B681B687A6812681268B2
:102D780004218A431A60464A454B59687B681B6C94
:102D88001C2003400420984003000B4353607B68D9
:102D98001B6B002B00D175E07B681B6B7A681000F9
:102DA80098476FE07B681B6C1C22134002229A40F4
:102DB8001300FA6813402FD0BB68022213402BD0AF
:102DC8007B681B681B68202213400BD17B681B683B
:102DD8007A68126812680A218A431A607B68252279
:102DE800012199542A4A2A4B59687B681B6C1C207C
:102DF80003400220984003000B4353607B68242261
:102E0800002199547B68DB6A002B3BD07B68DB6A26
:102E18007A681000984735E07B681B6C1C221340C9
:102E280008229A401300FA6813402CD0BB68082285
:102E3800134028D07B681B687A68126812680E21D4
:102E48008A431A60124A124B59687B681B6C1C2013
:102E580003400120984003000B4353607B68012224
:102E6800DA637B682522012199547B68242200219A
:102E780099547B685B6B002B05D07B685B6B7A6829
:102E880010009847C046C046BD4604B080BDC04645
:102E98000000024080B584B000AFF860B9607A6085
:102EA8003B60FB689B6CFA68D26C5A60FB681B6DD0
:102EB800002B04D0FB685B6DFA68926D5A60144A67
:102EC800134B5968FB681B6C1C2003400120984079
:102ED80003000B435360FB681B683A685A60FB6841
:102EE8009B68102B08D1FB681B687A689A60FB689E
:102EF8001B68BA68DA6007E0FB681B68BA689A6002
:102F0800FB681B687A68DA60C046BD4604B080BDBD
:102F18000000024080B584B000AF78607B681B6811
:102F28001A00FF231340083B14211800FDF7E4F8AA
:102F38000300FB607B681B6C9B080A4A9446634449
:102F48009B001A007B685A647B68074A9A64FB688E
:102F58001C22134001229A407B68DA64C046BD46B1
:102F680004B080BD008200108008024080B584B0A3
:102F780000AF78607B685B68FF221340FB60FB68EA
:102F88000A4A944663449B001A007B681A657B686A
:102F9800074A5A65FB68013B0322134001229A4005
:102FA8007B689A65C046BD4604B080BD3F8200106C
:102FB8004009024080B586B000AF786039600023D0
:102FC8007B6147E13B681B6801217A6991400A00EF
:102FD8001340FB60FB68002B00D138E13B685B685D
:102FE800022B03D03B685B68122B23D17B69DA087C
:102FF8007B6808329200D3583B617B6907221340F3
:103008009B000F229A401300DA433B6913403B614F
:103018003B681A697B6907210B409B009A401300A3
:103028003A6913433B617B69DA087B68083292008E
:103038003969D1507B681B683B617B695B0003225F
:103048009A401300DA433B6913403B613B685B6875
:1030580003221A407B695B009A4013003A691343C4
:103068003B617B683A691A603B685B68012B0BD04F
:103078003B685B68022B07D03B685B68112B03D069
:103088003B685B68122B30D17B689B683B617B692E
:103098005B0003229A401300DA433B6913403B610B
:1030A8003B68DA687B695B009A4013003A6913430E
:1030B8003B617B683A699A607B685B683B61012287
:1030C8007B699A401300DA433B6913403B613B68D4
:1030D8005B681B0901221A407B699A4013003A6910
:1030E80013433B617B683A695A607B68DB683B61E4
:1030F8007B695B0003229A401300DA433B69134063
:103108003B613B689A687B695B009A4013003A69A7
:1031180013433B617B683A69DA603B685A688023ED
:103128005B05134000D192E0504A7B699B08183335
:103138009B009B583B617B6903221340DB000F22F5
:103148009A401300DA433B6913403B617A68A02335
:10315800DB059A4213D07B68454A93420DD07B68C1
:10316800444A934207D07B68434A934201D10323E0
:1031780006E0052304E0022302E0012300E0002327
:103188007A6903210A40D20093403A6913433B61AC
:1031980036497B699B0818339B003A695A50334A71
:1031A8008023D3583B61FB68DA433B6913403B619A
:1031B8003B685A6880235B02134003D03A69FB6876
:1031C80013433B61294980223B698B50274A84235A
:1031D800D3583B61FB68DA433B6913403B613B686A
:1031E8005A6880239B02134003D03A69FB68134353
:1031F8003B611E4984223B698B501C4B1B683B6119
:10320800FB68DA433B6913403B613B685A6880239B
:103218005B03134003D03A69FB6813433B61134BCC
:103228003A691A60114B5B683B61FB68DA433B699A
:1032380013403B613B685A6880239B03134003D0CB
:103248003A69FB6813433B61084B3A695A607B69EA
:1032580001337B613B681A687B69DA40131E00D032
:10326800B0E6C046BD4606B080BDC0460018024064
:103278000004005000080050000C005080B584B0D5
:1032880000AF78600A00BB1C1A807B681B69BA1CF7
:103298001288134004D00F23FB1801221A7003E090
:1032A8000F23FB1800221A700F23FB181B78180035
:1032B800BD4604B080BD80B582B000AF786008001C
:1032C8001100BB1C021C1A807B1C0A1C1A707B1C78
:1032D8001B78002B04D0BB1C1A887B689A6103E01A
:1032E800BB1C1A887B689A62C046BD4602B080BD86
:1032F80080B582B000AF0200BB1D1A80104BDB689E
:10330800BA1D1288134008D00D4BBA1D1288DA6016
:10331800BB1D1B881800FDF75DF8094B1B69BA1D1A
:103328001288134008D0064BBA1D12881A61BB1DBB
:103338001B881800FDF768F8C046BD4602B080BD7E
:103348000018024080B584B000AF7860184B184A66
:103358001268184911407A680A431A607A6880230B
:103368009B009A421FD1144B1A6813005B009B18EC
:103378005B0012491800FCF7BFFE03000133FB6035
:1033880008E0FB68002B03D0FB68013BFB6001E011
:10339800032309E0064B5A698023DB001A40802387
:1033A800DB009A42EDD000231800BD4604B080BD72
:1033B80000700040FFF9FFFF0400002040420F00AA
:1033C80080B588B000AF78607B68002B01D10123FD
:1033D800F4E27B681B680122134000D17CE0C14BFA
:1033E8009B6838221340BB61BE4BDB680322134045
:1033F8007B61BB69102B02D17B69032B02D0BB69AF
:10340800082B0BD1B74B1A6880239B02134062D05C
:103418007B685B68002B5ED10123CFE27B685A682A
:1034280080235B029A4207D1AE4BAE4A12688021D4
:1034380049020A431A6020E07B685A68A023DB022D
:103448009A420ED1A74BA74A12688021C9020A43A3
:103458001A60A44BA34A1268802149020A431A60E1
:103468000BE0A04B9F4A12689F490A401A609D4B87
:103478009C4A12689D490A401A607B685B68002B69
:1034880014D0FEF7ABFA03003B6108E0FEF7A6FA9A
:1034980002003B69D31A642B01D903238EE2914BB6
:1034A8001A6880239B021340F0D015E0FEF796FAC5
:1034B80003003B6108E0FEF791FA02003B69D31A6A
:1034C800642B01D9032379E2864B1A6880239B0277
:1034D8001340F0D100E0C0467B681B68022213400D
:1034E80000D195E07F4B9B6838221340BB617D4B30
:1034F800DB68032213407B61BB69102B02D17B6917
:10350800022B02D0BB69002B33D1764B1A6880237B
:10351800DB00134005D07B68DB68002B01D1012359
:103528004CE2704A6F4B5B68714919407B685B6974
:103538001B020B435360BB69002B11D1694A694BCD
:103548001B686C4919407B681B690B431360654B0A
:103558001B68DB0A07221340674ADA40674B1A6088
:10356800674B1B681800FEF7DFF9031E4FD00123D5
:1035780024E27B68DB68002B2ED05A4A594B1B6823
:103588005C4919407B681B690B431360554B554ACE
:103598001268802149000A431A60FEF71FFA0300E7
:1035A8003B6108E0FEF71AFA02003B69D31A022BC6
:1035B80001D9032302E24B4B1A688023DB00134036
:1035C800F0D0484A474B5B68494919407B685B69BA
:1035D8001B020B4353601BE0424B424A12684949A5
:1035E8000A401A60FEF7FAF903003B6108E0FEF7AB
:1035F800F5F902003B69D31A022B01D90323DDE157
:10360800384B1A688023DB001340F0D100E0C04635
:103618007B681B680822134047D0324B9B683822CE
:103628001340182B0AD12F4B1B6E022213403CD09B
:103638007B689B69002B38D10123BFE17B689B69BC
:10364800002B19D0274B274A126E01210A431A660C
:10365800FEF7C4F903003B6108E0FEF7BFF902007A
:103668003B69D31A022B01D90323A7E11D4B1B6E1B
:1036780002221340F1D018E01A4B1A4A126E0121A7
:103688008A431A66FEF7AAF903003B6108E0FEF7D1
:10369800A5F902003B69D31A022B01D903238DE156
:1036A800104B1B6E02221340F1D17B681B68042269
:1036B800134000D1C6E01F23FB1800221A70094BE3
:1036C8009B6838221340202B1ED1064BDB6D02224B
:1036D800134000D1B6E07B689B68002B00D0B1E0B6
:1036E80001236BE100100240FFFFFEFFFFFFFBFF1D
:1036F800FF80FFFFFFC7FFFF0024F4000400002045
:1037080008000020FFFEFFFFAE4BDA6B80235B054D
:10371800134001D1012300E00023002B11D0A94B55
:10372800A84AD26B802149050A43DA63A54BDA6BB4
:1037380080235B051340FB60FB681F23FB180122F5
:103748001A70A14B1A6880235B0013401AD19E4B54
:103758009D4A1268802149000A431A60FEF73EF923
:1037680003003B6108E0FEF739F902003B69D31A10
:10377800022B01D9032321E1934B1A6880235B00B4
:103788001340F0D07B689B68012B06D18D4B8D4A86
:10379800D26D01210A43DA651CE07B689B68052B22
:1037A8000CD1884B874AD26D04210A43DA65854BD0
:1037B800844AD26D01210A43DA650BE0814B814AC4
:1037C800D26D01218A43DA657E4B7E4AD26D04218F
:1037D8008A43DA657B689B68002B14D0FEF7FEF8F5
:1037E80003003B6109E0FEF7F9F802003B69D31AD0
:1037F800764A934201D90323E0E0724BDB6D022243
:103808001340F0D013E0FEF7E9F803003B6109E04C
:10381800FEF7E4F802003B69D31A6C4A934201D9D7
:103828000323CBE0674BDB6D02221340F0D11F234B
:10383800FB181B78012B05D1624B624AD26B644995
:103848000A40DA637B68DB69002B00D1B5E05D4B89
:103858009B6838221340102B00D17DE07B68DB6920
:10386800022B52D1574B574A12685A490A401A60DC
:10387800FEF7B4F803003B6108E0FEF7AFF802007A
:103888003B69D31A022B01D9032397E04D4B1A68E1
:1038980080239B041340F0D14A4A4A4BDB684E49C7
:1038A80019407B68186A7B685B6A18437B689B6A67
:1038B8001B0218437B68DB6A18437B681B6B034356
:1038C8000B43D3603F4B3F4A1268802149040A43A7
:1038D8001A603C4B3B4AD268802149050A43DA60AA
:1038E800FEF77CF803003B6108E0FEF777F802007A
:1038F8003B69D31A022B01D903235FE0314B1A68C5
:1039080080239B041340F0D057E02E4B2D4A1268B9
:1039180030490A401A602B4B2A4AD26803218A434D
:10392800DA60284B274AD2682C490A40DA60FEF749
:1039380055F803003B6108E0FEF750F802003B69C8
:10394800D31A022B01D9032338E01E4B1A688023AF
:103958009B041340F0D130E07B68DB69012B01D177
:1039680001232BE0174BDB687B617B6903221A403C
:103978007B681B6A9A421ED17B6970221A407B6859
:103988005B6A9A4217D17A69FE23DB011A407B6889
:103998009B6A1B029A420ED17A69F8239B031A404C
:1039A8007B68DB6A9A4206D17B695B0F5A077B68A2
:1039B8001B6B9A4201D0012300E000231800BD468A
:1039C80008B080BD0010024000700040881300005D
:1039D800FFFFFFEFFFFFFFFE8C80C11FFFFFFEEF21
:1039E80080B584B000AF786039607B68002B01D166
:1039F8000123E7E0754B1B6807221A403B689A428F
:103A08001ED2724B714A126807218A4311003A6824
:103A18000A431A60FDF7E2FF0300FB6009E0FDF7C7
:103A2800DDFF0200FB68D31A694A934201D90323D8
:103A3800C8E0664B1B6807221A403B689A42EED1E1
:103A48007B681B680222134014D07B681B68042221
:103A5800134006D05F4B5F4A9268E021C9010A43D0
:103A68009A605C4A5B4B9B685B4919407B689B6822
:103A78000B4393607B681B680122134057D07B6817
:103A88005B68012B07D1534B1A6880239B021340B4
:103A98002BD1012396E07B685B68022B07D14D4B45
:103AA8001A6880239B0413401FD101238AE07B6896
:103AB8005B68002B07D1474B1A688023DB00134053
:103AC80013D101237EE07B685B68032B06D1414B51
:103AD8001B6E0222134008D1012373E03D4BDB6DBE
:103AE8000222134001D101236CE03A4A394B9B680A
:103AF80007218B4319007B685B680B439360FDF7D4
:103B08006DFF0300FB6009E0FDF768FF0200FB683A
:103B1800D31A2F4A934201D9032353E02D4B9B68B4
:103B280038221A407B685B68DB009A42ECD1274B4D
:103B38001B6807221A403B689A421ED9234B234A26
:103B4800126807218A4311003A680A431A60FDF790
:103B580045FF0300FB6009E0FDF740FF0200FB683A
:103B6800D31A1B4A934201D903232BE0174B1B6836
:103B780007221A403B689A42EED17B681B680422F0
:103B8800134008D0134A134B9B68144919407B68AB
:103B9800DB680B43936000F029F801000D4B9B682C
:103BA8001B0A0F221A400E4B9200D3581F221340B3
:103BB8000A00DA400B4B1A600B4B1B681800FDF724
:103BC800B3FE03001800BD4604B080BD00200240CB
:103BD8008813000000100240FFF0FFFFFF8FFFFF77
:103BE8003C480008040000200800002080B586B08A
:103BF80000AF3C4B9B68382213400FD1394B1B68F0
:103C0800DB0A0722134001229A401300FB60F9687F
:103C18003548FCF771FA03003B615DE0314B9B6866
:103C280038221340082B02D1304B3B6154E02D4B16
:103C38009B6838221340102B38D12A4BDB680322AB
:103C48001340BB60274BDB681B0907221340013375
:103C58007B60BB68032B0DD179682448FCF74CFACC
:103C6800030019001F4BDB681B0A7F2213404B43DC
:103C78007B610DE079681C48FCF73EFA03001900E7
:103C8800184BDB681B0A7F2213404B437B61C046FD
:103C9800144BDB685B0F0722134001333B60396824
:103CA8007869FCF729FA03003B6115E00D4B9B6826
:103CB80038221340202B03D180231B023B610BE0E9
:103CC800084B9B6838221340182B03D1FA23DB01D9
:103CD8003B6101E000233B613B691800BD4606B02B
:103CE80080BDC046001002400024F40000127A0093
:103CF80080B586B000AF78601323FB1800221A70D5
:103D08001223FB1800221A707B681A6880239B0212
:103D1800134000D1A3E01123FB1800221A70854B31
:103D2800DA6B80235B05134011D1824B814AD26B39
:103D3800802149050A43DA637E4BDA6B80235B05F1
:103D48001340BB60BB681123FB1801221A707A4B21
:103D5800794A1268802149000A431A60FDF73EFE3D
:103D68000300FB600BE0FDF739FE0200FB68D31A85
:103D7800022B04D91323FB1803221A7005E06E4B9B
:103D88001A6880235B001340EDD01323FB181B78BF
:103D9800002B53D1674BDA6DC0239B0013407B6126
:103DA8007B69002B19D07B689A697B699A4214D089
:103DB800604BDB6D614A13407B615E4B5D4AD26D9F
:103DC800802149020A43DA655A4B5A4AD26D5C4946
:103DD8000A40DA65574B7A69DA657B690122134034
:103DE80016D0FDF7FBFD0300FB600CE0FDF7F6FDC8
:103DF8000200FB68D31A534A934204D91323FB18D1
:103E080003221A7004E04B4BDB6D02221340EDD005
:103E18001323FB181B78002B09D1464A454BDB6D51
:103E2800464919407B689B690B43D3650CE0122314
:103E3800FB181322BA1812781A7005E01223FB181F
:103E48001322BA1812781A701123FB181B78012B49
:103E580005D1384B374AD26B3B490A40DA637B6855
:103E68001B680122134009D0324A324B5B6D032193
:103E78008B4319007B685B680B4353657B681B6841
:103E88000222134009D02B4A2A4B5B6D0C218B432D
:103E980019007B689B680B4353657B681B6840224D
:103EA800134008D0234A234B5B6D284919407B688F
:103EB800DB680B4353657B681A688023DB0113407A
:103EC80015D01C4A1B4B5B6D9B0099087B685B698E
:103ED8000B4353657B685A698023DB059A4206D1F8
:103EE800144B144AD268802149020A43DA607B687D
:103EF8001A6880231B01134015D00E4A0D4B5B6DC9
:103F0800134919407B681B690B4353657B681A6921
:103F18008023DB019A4206D1064B064AD2688021EB
:103F280049020A43DA601223FB181B781800BD46C1
:103F380006B080BD0010024000700040FFFCFFFF8B
:103F4800FFFFFEFF88130000FFFFFFEFFFCFFFFF1B
:103F5800FF3FFFFF80B582B000AF78607B68002B21
:103F680001D101231EE07B683D229B5CDBB2002B64
:103F780007D17B683C22002199547B681800FDF723
:103F880057FC7B683D22022199547B681A687B683C
:103F980004331900100000F039F97B683D22012133
:103FA800995400231800BD4602B080BD80B584B086
:103FB80000AF78607B683D22022199547B681B68BA
:103FC8009B680E4A1340FB60FB68062B0CD0FA680E
:103FD80080235B029A4207D07B681B687A68126864
:103FE800126801210A431A607B683D220121995415
:103FF80000231800BD4604B080BDC046070001007C
:1040080080B584B000AF786039607B683C229B5CE7
:10401800012B01D10223ABE07B683C22012199549A
:104028007B683D22022199547B681B689B68FB6072
:10403800FB68514A1340FB60FB68504A1340FB6021
:104048007B681B68FA689A603B681B68402B00D144
:104058006BE00ED8102B00D177E003D8002B00D1ED
:1040680073E07CE0202B00D16FE0302B00D16CE0B6
:1040780075E0702B0ED004D8502B36D0602B44D06E
:104088006DE080225201934268D0802292019342CF
:1040980017D064E07B6818683B6899683B685A6881
:1040A8003B68DB6800F02CFA7B681B689B68FB6048
:1040B800FB6877221343FB607B681B68FA689A6089
:1040C8004DE07B6818683B6899683B685A683B68AC
:1040D800DB6800F015FA7B681B687A6812689268DA
:1040E8008021C9010A439A6039E07B6818683B68F7
:1040F80059683B68DB681A0000F086F97B681B6822
:104108005021180000F0E0F929E07B6818683B6846
:1041180059683B68DB681A0000F0A4F97B681B68E3
:104128006021180000F0D0F919E07B6818683B6836
:1041380059683B68DB681A0000F066F97B681B6801
:104148004021180000F0C0F909E07B681A683B6854
:104158001B681900100000F0B7F900E0C0467B6842
:104168003D22012199547B683C2200219954002367
:104178001800BD4604B080BD88FFCEFFFF00FFFFDA
:1041880080B582B000AF786039607B683C229B5C68
:10419800012B01D1022332E07B683C220121995492
:1041A8007B683D22022199543A687B681100180007
:1041B80000F0A2F8031E09D07B683D220121995422
:1041C8007B683C2200219954012318E07B681B6816
:1041D8007A681268D26840218A43DA607B681B6873
:1041E8007A681268D26808490A40DA607B683D221A
:1041F800012199547B683C2200219954002318001E
:10420800BD4602B080BDC046FFBFFFFF80B584B089
:1042180000AF786039607B681B68FB607B682F4A59
:10422800934203D07B682E4A934208D1FB687022E0
:104238009343FB603B685B68FA681343FB607B68E9
:10424800264A934213D07B68254A93420FD07B6855
:10425800244A93420BD07B68234A934207D07B6859
:10426800224A934203D07B68214A934208D1FB68D3
:10427800204A1340FB603B68DB68FA681343FB6025
:10428800FB68802293431A003B685B691343FB6019
:104298007B68FA681A603B689A687B68DA623B68F0
:1042A8001A687B689A627B680C4A93420BD07B68D9
:1042B8000D4A934207D07B680C4A934203D07B682F
:1042C8000B4A934203D13B681A697B681A637B687F
:1042D80001225A61C046BD4604B080BD002C014091
:1042E800000400400020004000400140004401401C
:1042F80000480140FFFCFFFF80B586B000AF786042
:1043080039607B681B689B687B617B693C4A13400A
:104318007B613B685B687A6913437B617B69394AD7
:1043280013407B613B681B687A6913437B617B6838
:104338001B687A699A603B685B68302B5AD006D84C
:10434800102B57D0202B55D0002B53D053E0502B97
:104358003CD002D8402B10D04DE0602B40D0702BC1
:1043680000D048E07B6818683B68D9683B689A6861
:104378003B681B6900F0C4F83DE03B681B68052BEF
:1043880001D1012338E07B681B681B6A3B617B68AD
:104398001B687A681268126A01218A431A627B686C
:1043A8001B689B69FB60FB68F0229343FB603B68DA
:1043B8001B691B01FA681343FB607B681B68FA687A
:1043C8009A617B681B683A691A6214E07B6818680E
:1043D8003B6899683B681B691A0000F015F80AE009
:1043E8007B6818683B6899683B681B691A0000F08D
:1043F80039F800E0C04600231800BD4606B080BD6D
:104408008FFFCFFFF8FFFEFF80B586B000AFF860E2
:10441800B9607A60FB681B6A7B61FB681B6A0122D2
:1044280093431A00FB681A62FB689B693B613B690E
:10443800F02293433B617B681B013A6913433B615C
:104448007B690A2293437B617A69BB6813437B616A
:10445800FB683A699A61FB687A691A62C046BD4688
:1044680006B080BD80B586B000AFF860B9607A60EC
:10447800FB681B6A102293431A00FB681A62FB68E8
:104488009B697B61FB681B6A3B617B690D4A134032
:104498007B617B681B037A6913437B613B69A022BC
:1044A80093433B61BB681B013A6913433B61FB685B
:1044B8007A699A61FB683A691A62C046BD4606B0D5
:1044C80080BDC046FF0FFFFF80B584B000AF7860A5
:1044D80039607B689B68FB60FB68084A1340FB6097
:1044E8003A68FB68134307221343FB607B68FA684A
:1044F8009A60C046BD4604B080BDC0468FFFCFFF5E
:1045080080B586B000AFF860B9607A603B60FB6840
:104518009B687B617B69094A13407B613B681A028F
:104528007B681A43BB6813437A6913437B61FB6852
:104538007A699A60C046BD4606B080BDFF00FFFF9D
:1045480080B584B000AF786039607B683C229B5CA2
:10455800012B01D1022340E07B683C2201219954C0
:104568007B683D22022199547B681B685B68FB606D
:104578007B681B689B68BB607B681B68194A934211
:1045880008D1FB68184A1340FB603B685B68FA680F
:104598001343FB60FB6870229343FB603B681B6816
:1045A800FA681343FB60BB6880229343BB603B6897
:1045B8009B68BA681343BB607B681B68FA685A60DB
:1045C8007B681B68BA689A607B683D220121995410
:1045D8007B683C220021995400231800BD4604B092
:1045E80080BDC046002C0140FFFF0FFF80B584B09E
:1045F80000AF786039600023FB607B683C229B5CDD
:10460800012B01D1022379E07B683C2201219954D6
:10461800FB68FF2293431A003B68DB681343FB6087
:10462800FB68384A1A403B689B681343FB60FB6889
:10463800354A1A403B685B681343FB60FB68334AA2
:104648001A403B681B681343FB60FB68304A1A40FA
:104658003B681B691343FB60FB682E4A1A403B68A2
:104668005B691343FB60FB682B4A1A403B681B6B72
:104678001343FB60FB68294A1A403B689B691B048B
:104688001343FB607B681B68254A934206D1FB688D
:10469800244A1A403B68DB691343FB607B681B684C
:1046A8001F4A934221D1FB681F4A1A403B689B6A04
:1046B8001B051343FB60FB681C4A1A403B681B6AD6
:1046C8001343FB60FB681A4A1A403B685B6A134352
:1046D800FB607B681B68124A934206D1FB68154A47
:1046E8001A403B68DB6A1343FB607B681B68FA6807
:1046F8005A647B683C220021995400231800BD4667
:1047080004B080BDFFFCFFFFFFFBFFFFFFF7FFFFCB
:10471800FFEFFFFFFFDFFFFFFFBFFFFFFFFFF0FF20
:10472800002C0140FFFFFFEFFFFF0FFFFFFFFFFE21
:10473800FFFFFFFDFFFFFFDF0D488546002103E077
:104748000C4B5B58435004310B480C4B42189A42AF
:10475800F6D30B4A02E0002313600432094B9A4255
:10476800F9D3FDF7B5F800F011F8FCF75DFDFEE7A9
:10477800009000208448000800000020100000205D
:104788001000002024040020FEE7000070B5002679
:104798000C4D0D4C641BA410A64209D1002600F054
:1047A80021F80A4D0A4C641BA410A64205D170BD1D
:1047B800B300EB5898470136EEE7B300EB5898473B
:1047C8000136F2E77C4800087C4800087C4800086D
:1047D8008048000803008218934200D1704719707E
:1047E8000133F9E7F8B5C046F8BC08BC9E467047E7
:0C47F800F8B5C046F8BC08BC9E467047EF
:10480400620F0008880F0008AC0F0008141000089D
:10481400381000085C10000880100008A61000087A
:10482400DC100008041100083A11000860110008A7
:1048340094110008BA1100080000000000000000F4
:104844000000000000000000000000000000000064
:104854000000000000000000010000000200000051
:104864000300000004000000060000000700000030
:0848740008000000090000002B
:04487C00E10000084F
:04488000B900000873
:10488400010000000024F400040000000100000006
:040000050800474167
:00000001FF
